{
    "_format": "hh-sol-artifact-1",
    "contractName": "RainterpreterExpressionDeployer",
    "sourceName": "contracts/interpreter/shared/RainterpreterExpressionDeployer.sol",
    "abi": [
        {
            "inputs": [
                {
                    "components": [
                        {
                            "internalType": "address",
                            "name": "interpreter",
                            "type": "address"
                        },
                        {
                            "internalType": "address",
                            "name": "store",
                            "type": "address"
                        },
                        {
                            "internalType": "bytes",
                            "name": "meta",
                            "type": "bytes"
                        }
                    ],
                    "internalType": "struct RainterpreterExpressionDeployerConstructionConfig",
                    "name": "config_",
                    "type": "tuple"
                }
            ],
            "stateMutability": "nonpayable",
            "type": "constructor"
        },
        {
            "inputs": [
                {
                    "internalType": "uint256",
                    "name": "inputs",
                    "type": "uint256"
                }
            ],
            "name": "DoWhileMaxInputs",
            "type": "error"
        },
        {
            "inputs": [
                {
                    "internalType": "uint256",
                    "name": "inputs",
                    "type": "uint256"
                },
                {
                    "internalType": "uint256",
                    "name": "outputs",
                    "type": "uint256"
                }
            ],
            "name": "InsufficientLoopOutputs",
            "type": "error"
        },
        {
            "inputs": [
                {
                    "internalType": "uint256",
                    "name": "minStackOutputs",
                    "type": "uint256"
                },
                {
                    "internalType": "uint256",
                    "name": "actualStackOutputs",
                    "type": "uint256"
                }
            ],
            "name": "MinFinalStack",
            "type": "error"
        },
        {
            "inputs": [],
            "name": "MinStackBottom",
            "type": "error"
        },
        {
            "inputs": [
                {
                    "internalType": "uint256",
                    "name": "expectedEntrypoints",
                    "type": "uint256"
                },
                {
                    "internalType": "uint256",
                    "name": "actualEntrypoints",
                    "type": "uint256"
                }
            ],
            "name": "MissingEntrypoint",
            "type": "error"
        },
        {
            "inputs": [
                {
                    "internalType": "int256",
                    "name": "price",
                    "type": "int256"
                }
            ],
            "name": "NotPosIntPrice",
            "type": "error"
        },
        {
            "inputs": [
                {
                    "internalType": "uint256",
                    "name": "constantsLength",
                    "type": "uint256"
                },
                {
                    "internalType": "uint256",
                    "name": "constantsRead",
                    "type": "uint256"
                }
            ],
            "name": "OutOfBoundsConstantsRead",
            "type": "error"
        },
        {
            "inputs": [
                {
                    "internalType": "uint256",
                    "name": "stackTopIndex",
                    "type": "uint256"
                },
                {
                    "internalType": "uint256",
                    "name": "stackRead",
                    "type": "uint256"
                }
            ],
            "name": "OutOfBoundsStackRead",
            "type": "error"
        },
        {
            "inputs": [
                {
                    "internalType": "uint256",
                    "name": "x",
                    "type": "uint256"
                },
                {
                    "internalType": "uint256",
                    "name": "y",
                    "type": "uint256"
                }
            ],
            "name": "PRBMath_MulDiv18_Overflow",
            "type": "error"
        },
        {
            "inputs": [
                {
                    "internalType": "uint256",
                    "name": "x",
                    "type": "uint256"
                },
                {
                    "internalType": "uint256",
                    "name": "y",
                    "type": "uint256"
                },
                {
                    "internalType": "uint256",
                    "name": "denominator",
                    "type": "uint256"
                }
            ],
            "name": "PRBMath_MulDiv_Overflow",
            "type": "error"
        },
        {
            "inputs": [
                {
                    "internalType": "UD60x18",
                    "name": "x",
                    "type": "uint256"
                }
            ],
            "name": "PRBMath_UD60x18_Ceil_Overflow",
            "type": "error"
        },
        {
            "inputs": [
                {
                    "internalType": "UD60x18",
                    "name": "x",
                    "type": "uint256"
                }
            ],
            "name": "PRBMath_UD60x18_Exp2_InputTooBig",
            "type": "error"
        },
        {
            "inputs": [
                {
                    "internalType": "UD60x18",
                    "name": "x",
                    "type": "uint256"
                }
            ],
            "name": "PRBMath_UD60x18_Exp_InputTooBig",
            "type": "error"
        },
        {
            "inputs": [
                {
                    "internalType": "UD60x18",
                    "name": "x",
                    "type": "uint256"
                },
                {
                    "internalType": "UD60x18",
                    "name": "y",
                    "type": "uint256"
                }
            ],
            "name": "PRBMath_UD60x18_Gm_Overflow",
            "type": "error"
        },
        {
            "inputs": [
                {
                    "internalType": "UD60x18",
                    "name": "x",
                    "type": "uint256"
                }
            ],
            "name": "PRBMath_UD60x18_Log_InputTooSmall",
            "type": "error"
        },
        {
            "inputs": [
                {
                    "internalType": "UD60x18",
                    "name": "x",
                    "type": "uint256"
                }
            ],
            "name": "PRBMath_UD60x18_Sqrt_Overflow",
            "type": "error"
        },
        {
            "inputs": [
                {
                    "internalType": "uint256",
                    "name": "stackHighwaterIndex",
                    "type": "uint256"
                },
                {
                    "internalType": "uint256",
                    "name": "stackTopIndex",
                    "type": "uint256"
                }
            ],
            "name": "StackPopUnderflow",
            "type": "error"
        },
        {
            "inputs": [
                {
                    "internalType": "uint256",
                    "name": "updatedAt",
                    "type": "uint256"
                },
                {
                    "internalType": "uint256",
                    "name": "staleAfter",
                    "type": "uint256"
                }
            ],
            "name": "StalePrice",
            "type": "error"
        },
        {
            "inputs": [
                {
                    "internalType": "uint256",
                    "name": "startBit",
                    "type": "uint256"
                },
                {
                    "internalType": "uint256",
                    "name": "length",
                    "type": "uint256"
                }
            ],
            "name": "TruncatedEncoding",
            "type": "error"
        },
        {
            "inputs": [
                {
                    "internalType": "bytes32",
                    "name": "actualBytecodeHash",
                    "type": "bytes32"
                }
            ],
            "name": "UnexpectedInterpreterBytecodeHash",
            "type": "error"
        },
        {
            "inputs": [
                {
                    "internalType": "bytes32",
                    "name": "actualOpMeta",
                    "type": "bytes32"
                }
            ],
            "name": "UnexpectedOpMetaHash",
            "type": "error"
        },
        {
            "inputs": [
                {
                    "internalType": "bytes",
                    "name": "actualPointers",
                    "type": "bytes"
                }
            ],
            "name": "UnexpectedPointers",
            "type": "error"
        },
        {
            "inputs": [
                {
                    "internalType": "bytes32",
                    "name": "actualBytecodeHash",
                    "type": "bytes32"
                }
            ],
            "name": "UnexpectedStoreBytecodeHash",
            "type": "error"
        },
        {
            "inputs": [],
            "name": "WriteError",
            "type": "error"
        },
        {
            "inputs": [],
            "name": "ZeroInputs",
            "type": "error"
        },
        {
            "anonymous": false,
            "inputs": [
                {
                    "indexed": false,
                    "internalType": "address",
                    "name": "sender",
                    "type": "address"
                },
                {
                    "indexed": false,
                    "internalType": "address",
                    "name": "deployer",
                    "type": "address"
                },
                {
                    "indexed": false,
                    "internalType": "address",
                    "name": "interpreter",
                    "type": "address"
                },
                {
                    "indexed": false,
                    "internalType": "address",
                    "name": "store",
                    "type": "address"
                },
                {
                    "indexed": false,
                    "internalType": "bytes",
                    "name": "opMeta",
                    "type": "bytes"
                }
            ],
            "name": "DISpair",
            "type": "event"
        },
        {
            "anonymous": false,
            "inputs": [
                {
                    "indexed": false,
                    "internalType": "address",
                    "name": "sender",
                    "type": "address"
                },
                {
                    "indexed": false,
                    "internalType": "address",
                    "name": "expression",
                    "type": "address"
                }
            ],
            "name": "ExpressionAddress",
            "type": "event"
        },
        {
            "anonymous": false,
            "inputs": [
                {
                    "indexed": false,
                    "internalType": "address",
                    "name": "sender",
                    "type": "address"
                },
                {
                    "indexed": false,
                    "internalType": "bytes[]",
                    "name": "sources",
                    "type": "bytes[]"
                },
                {
                    "indexed": false,
                    "internalType": "uint256[]",
                    "name": "constants",
                    "type": "uint256[]"
                },
                {
                    "indexed": false,
                    "internalType": "uint256[]",
                    "name": "minOutputs",
                    "type": "uint256[]"
                }
            ],
            "name": "NewExpression",
            "type": "event"
        },
        {
            "inputs": [
                {
                    "internalType": "bytes[]",
                    "name": "sources_",
                    "type": "bytes[]"
                },
                {
                    "internalType": "uint256[]",
                    "name": "constants_",
                    "type": "uint256[]"
                },
                {
                    "internalType": "uint256[]",
                    "name": "minOutputs_",
                    "type": "uint256[]"
                }
            ],
            "name": "deployExpression",
            "outputs": [
                {
                    "internalType": "contract IInterpreterV1",
                    "name": "",
                    "type": "address"
                },
                {
                    "internalType": "contract IInterpreterStoreV1",
                    "name": "",
                    "type": "address"
                },
                {
                    "internalType": "address",
                    "name": "",
                    "type": "address"
                }
            ],
            "stateMutability": "nonpayable",
            "type": "function"
        },
        {
            "inputs": [
                {
                    "internalType": "bytes[]",
                    "name": "sources_",
                    "type": "bytes[]"
                },
                {
                    "internalType": "uint256[]",
                    "name": "constants_",
                    "type": "uint256[]"
                },
                {
                    "internalType": "uint256[]",
                    "name": "minOutputs_",
                    "type": "uint256[]"
                }
            ],
            "name": "integrityCheck",
            "outputs": [
                {
                    "internalType": "uint256",
                    "name": "",
                    "type": "uint256"
                }
            ],
            "stateMutability": "view",
            "type": "function"
        },
        {
            "inputs": [],
            "name": "interpreter",
            "outputs": [
                {
                    "internalType": "contract IInterpreterV1",
                    "name": "",
                    "type": "address"
                }
            ],
            "stateMutability": "view",
            "type": "function"
        },
        {
            "inputs": [],
            "name": "store",
            "outputs": [
                {
                    "internalType": "contract IInterpreterStoreV1",
                    "name": "",
                    "type": "address"
                }
            ],
            "stateMutability": "view",
            "type": "function"
        },
        {
            "inputs": [
                {
                    "internalType": "bytes4",
                    "name": "interfaceId_",
                    "type": "bytes4"
                }
            ],
            "name": "supportsInterface",
            "outputs": [
                {
                    "internalType": "bool",
                    "name": "",
                    "type": "bool"
                }
            ],
            "stateMutability": "view",
            "type": "function"
        }
    ],
    "bytecode": "0x60c06040523480156200001157600080fd5b506040516200580438038062005804833981016040819052620000349162000453565b6000816000015190506000816001600160a01b031663f933c72f6040518163ffffffff1660e01b8152600401600060405180830381865afa1580156200007e573d6000803e3d6000fd5b505050506040513d6000823e601f3d908101601f19168201604052620000a8919081019062000504565b90506040518060c00160405280609c815260200162005768609c913980519060200120818051906020012014620000ff5780604051634c1af20160e11b8152600401620000f6919062000572565b60405180910390fd5b813f7ff69508063d426c73943342c5337e3c20812f13b966bb573c68a2ad9bbc6bcefc81146200014657604051630eec293f60e11b815260048101829052602401620000f6565b6020840151803f7f0898325e539e0f460f729b88fbe2e6d9ddf6c75caf8dbb178bdd2844a811876d8114620001925760405163cc0415fd60e01b815260048101829052602401620000f6565b604086015180516020909101207f273a2d7f5b24df6d3c09a363f75b2c795d987d87d86da855b7483892c7906e818114620001e4576040516343d0fe5760e11b815260048101829052602401620000f6565b6001600160a01b03808716608052831660a052865160208801516040808a015190517f1788931a083e1bfada6cb062b5426ea97c7866b814b4d1173909e4018f2122f1936200023793339330936200058e565b60405180910390a1604080518082018252601581527f4945787072657373696f6e4465706c6f79657256310000000000000000000000602082015290516365ba36c160e01b8152731820a4b7618bde71dce8cdc73aab6c95905fad24916329965a1d91309184916365ba36c191620002b29160040162000572565b602060405180830381865afa158015620002d0573d6000803e3d6000fd5b505050506040513d601f19601f82011682018060405250810190620002f69190620005d7565b6040516001600160e01b031960e085901b1681526001600160a01b0390921660048301526024820152306044820152606401600060405180830381600087803b1580156200034357600080fd5b505af115801562000358573d6000803e3d6000fd5b5050505050505050505050620005f1565b634e487b7160e01b600052604160045260246000fd5b80516001600160a01b03811681146200039757600080fd5b919050565b60005b83811015620003b95781810151838201526020016200039f565b50506000910152565b600082601f830112620003d457600080fd5b81516001600160401b0380821115620003f157620003f162000369565b604051601f8301601f19908116603f011681019082821181831017156200041c576200041c62000369565b816040528381528660208588010111156200043657600080fd5b620004498460208301602089016200039c565b9695505050505050565b6000602082840312156200046657600080fd5b81516001600160401b03808211156200047e57600080fd5b90830190606082860312156200049357600080fd5b604051606081018181108382111715620004b157620004b162000369565b604052620004bf836200037f565b8152620004cf602084016200037f565b6020820152604083015182811115620004e757600080fd5b620004f587828601620003c2565b60408301525095945050505050565b6000602082840312156200051757600080fd5b81516001600160401b038111156200052e57600080fd5b6200053c84828501620003c2565b949350505050565b600081518084526200055e8160208601602086016200039c565b601f01601f19169290920160200192915050565b60208152600062000587602083018462000544565b9392505050565b6001600160a01b038681168252858116602083015284811660408301528316606082015260a060808201819052600090620005cc9083018462000544565b979650505050505050565b600060208284031215620005ea57600080fd5b5051919050565b60805160a051615144620006246000396000818161015001526104b001526000818160ba015261048e01526151446000f3fe608060405234801561001057600080fd5b50600436106100675760003560e01c80633a35cf17116100505780633a35cf17146100b55780635511cb6714610101578063975057e71461014b57600080fd5b806301ffc9a71461006c5780631dc8f01314610094575b600080fd5b61007f61007a36600461471a565b610172565b60405190151581526020015b60405180910390f35b6100a76100a2366004614869565b61020b565b60405190815260200161008b565b6100dc7f000000000000000000000000000000000000000000000000000000000000000081565b60405173ffffffffffffffffffffffffffffffffffffffff909116815260200161008b565b61011461010f366004614869565b61031f565b6040805173ffffffffffffffffffffffffffffffffffffffff9485168152928416602084015292169181019190915260600161008b565b6100dc7f000000000000000000000000000000000000000000000000000000000000000081565b60007fffffffff0000000000000000000000000000000000000000000000000000000082167f5511cb6700000000000000000000000000000000000000000000000000000000148061020557507fffffffff0000000000000000000000000000000000000000000000000000000082167f01ffc9a700000000000000000000000000000000000000000000000000000000145b92915050565b600083518251111561025b57815184516040517f7d2d70db000000000000000000000000000000000000000000000000000000008152600481019290925260248201526044015b60405180910390fd5b600061026f858561026a6104de565b6104ed565b604081015160608201519192509060005b85518161ffff1610156103015760408401839052606084018290526102ee84826102cb60027fffffffffffffffffffffffffffffffffffffffffffffffffffffffffffffffff614a32565b898561ffff16815181106102e1576102e1614a46565b6020026020010151610600565b50806102f981614a75565b915050610280565b506080830151604084015160209103045b93505050505b9392505050565b60008060008061033087878761020b565b90507ff66a0c19428b142e06d7aa23d5f18b9b9ff08408fefcdfb8bb27cb34929f7786338888886040516103679493929190614ad1565b60405180910390a16000806104076103808a8a86610729565b60408051602c83017fffffffffffffffffffffffffffffffffffffffffffffffffffffffffffffffe01681019091527effff0000000000000000000000000000000000000000000000000000000000600190920160e81b919091167f61000080600c6000396000f3000000000000000000000000000000000000000017815290600d820190565b91509150610430818a8a866040518060c00160405280609c8152602001615073609c91396107aa565b600061043b8361080f565b6040805133815273ffffffffffffffffffffffffffffffffffffffff831660208201529192507fce6e4a4a7b561c65155990775d2faf8a581292f97859ce67e366fd53686b31f1910160405180910390a17f00000000000000000000000000000000000000000000000000000000000000009a7f00000000000000000000000000000000000000000000000000000000000000009a509098509650505050505050565b60606104e861087d565b905090565b6105266040518060c001604052806060815260200160008152602001600081526020016000815260200160008152602001606081525090565b6040805160c0810182528581528451602082015290810161056860027fffffffffffffffffffffffffffffffffffffffffffffffffffffffffffffffff614a32565b81526020016105c061059b60027fffffffffffffffffffffffffffffffffffffffffffffffffffffffffffffffff614a32565b7fffffffffffffffffffffffffffffffffffffffffffffffffffffffffffffffe00190565b81526020016105f060027fffffffffffffffffffffffffffffffffffffffffffffffffffffffffffffffff614a32565b8152602001929092525092915050565b600060027fffffffffffffffffffffffffffffffffffffffffffffffffffffffffffffffff0485604001511015610663576040517f271592cf00000000000000000000000000000000000000000000000000000000815260040160405180910390fd5b845160208581029091010151805181015b808210156106ce57600080600484019350835161ffff8116915061ffff8160101c169250506106c58982898c60a0015186815181106106b5576106b5614a46565b602002602001015163ffffffff16565b96505050610674565b60408701516020908603048085111561071d576040517ff993c6e70000000000000000000000000000000000000000000000000000000081526004810186905260248101829052604401610252565b50939695505050505050565b600080610737602082614bda565b9050610747845160209081020190565b6107519082614bda565b905060005b85518110156107a15761078386828151811061077457610774614a46565b60200260200101515160200190565b61078d9083614bda565b91508061079981614bed565b915050610756565b50949350505050565b818552602085016107bb8185610b2d565b9050606060005b8651811015610805578681815181106107dd576107dd614a46565b602002602001015191506107f18285610b4d565b6107fb8383610bac565b92506001016107c2565b5050505050505050565b6000806000600d9050835160e81c61ffff168101846000f0915073ffffffffffffffffffffffffffffffffffffffff8216610876576040517f08d4abb600000000000000000000000000000000000000000000000000000000815260040160405180910390fd5b5092915050565b60606000604051806109e00160405280610895604e90565b67ffffffffffffffff1667ffffffffffffffff168152602001610bcc8152602001610c398152602001610c9c8152602001610cbc8152602001610ccb8152602001610ccb8152602001610cd78152602001610cf08152602001610d5c8152602001610df18152602001610e0e8152602001610e738152602001610eee8152602001610f85815260200161105d815260200161106d815260200161107c815260200161108c815260200161109b81526020016110aa81526020016110b981526020016110c8815260200161108c81526020016110d781526020016110e68152602001610ccb8152602001610ccb81526020016110f6815260200161110681526020016111168152602001611126815260200161113681526020016111468152602001611156815260200161116681526020016111768152602001611185815260200161119481526020016111a381526020016111b481526020016111d181526020016111a381526020016111e081526020016111ef81526020016111fe815260200161120d815260200161121c815260200161122b815260200161123a81526020016112498152602001611258815260200161126781526020016112768152602001611285815260200161129481526020016112a381526020016112b281526020016112c181526020016112d081526020016112df81526020016112ee81526020016112fd815260200161130d815260200161131d815260200161132d815260200161133c815260200161134b815260200161135a8152602001611369815260200161137881526020016113878152602001610cd7815260200161139681526020016113a681526020016113b681526020016113c681526020016113d5815260200161142981525090508091505090565b815260200190565b600061031882610b47845186610b2590919063ffffffff16565b90611438565b815161ffff907fffffffffffffffffffffffffffffffffffffffffffffffffffffffffffff000090840160028481019086015b82811015610ba35780518581166002028301518616908516178152600401610b80565b50505050505050565b600061031882610bc6845186610b2590919063ffffffff16565b90611455565b600060ff600884901c81169084166101008183011115610c22576040517f2ccabbc20000000000000000000000000000000000000000000000000000000081526004810183905260248101829052604401610252565b610c2f868561146f6114a5565b9695505050505050565b600060ff600884901c81169084166101008183011115610c8f576040517f2ccabbc20000000000000000000000000000000000000000000000000000000081526004810183905260248101829052604401610252565b610c2f86856114bb6114ff565b6000610cb4610cab8584611510565b85906008611544565b949350505050565b6000610cb484836115a06114ff565b6000610cb484836115ac565b6000614710610ce78584836114a5565b95945050505050565b6000600f83811690600885811c91821691600c87901c91828401917efffffffffffffffffffffffffffffffffffffffffffffffffffffffffffff0169088901b610f0016178117610d428988866115bb565b9650610d4f898289610d5c565b9998505050505050505050565b60408301516060840151600091600f85811692600487901c90911691600887901c91610d898988876115cf565b60408a01527fffffffffffffffffffffffffffffffffffffffffffffffffffffffffffffffe0870160608a0152610dc289848987610600565b50606089018190526040890151610ddb908a9086611544565b6040999099019190915250959695505050505050565b6000826003811115610e0557610e05614c25565b50909392505050565b600060ff8316600f8110610e51576040517f316e6a3700000000000000000000000000000000000000000000000000000000815260048101829052602401610252565b60018101600481901b8517610312610e6a888388610d5c565b889060016115e9565b6020830151600090601f84811691600586901c90911690600a86901c908110610ed85760208701516040517f890a8e6a000000000000000000000000000000000000000000000000000000008152600481019190915260248101829052604401610252565b610312610ee68887866115cf565b889084611544565b6000600c83901c600f80851690600486901c1681811015610f45576040517f508a8d2f0000000000000000000000000000000000000000000000000000000081526004810183905260248101829052604401610252565b6060870151610fff87169060005b85811015610f775760608a01829052610f6d8a848a610d5c565b9750600101610f53565b509598975050505050505050565b600060018381169084901c81611006576040860151602090850304808210610fe3576040517f1cb73c160000000000000000000000000000000000000000000000000000000081526004810182905260248101839052604401610252565b60408701516060880151610ffb9160208502016115f6565b606088015250611053565b856020015181106110535760208601516040517f890a8e6a000000000000000000000000000000000000000000000000000000008152600481019190915260248101829052604401610252565b610c2f86856115ac565b6000610cb4848361160c8661165b565b6000610cb4848361166b611705565b6000610cb48483611716866117d0565b6000610cb484836117ee6114ff565b6000610cb484836118836114a5565b6000610cb484836118f4611705565b6000610cb484836119536114ff565b6000610cb484836119a96114a5565b6000610cb48483611a366114ff565b6000610cb48483611ae586611af2565b6000610cb48483611aff8661165b565b6000610cb48483611b0b8661165b565b6000610cb48483611b178661165b565b6000610cb484836115f68661165b565b6000610cb48483611b238661165b565b6000610cb48483611b328661165b565b6000610cb48483611b3e8661165b565b6000610cb48483611b4a8661165b565b6000610cb48483611b566114a5565b6000610cb48483611b6a6114ff565b6000610cb48483611b7a6114a5565b6000614710610ce78584838761165b565b6000610cb482611b8e6111c8866001614bda565b879291906117d0565b6000610cb48483611b9e6114ff565b6000610cb48483611ba26114ff565b6000610cb48483611ba66114a5565b6000610cb48483611baa6114ff565b6000610cb48483611bae6114ff565b6000610cb48483611bba6114a5565b6000610cb48483611bc56114ff565b6000610cb48483611bd16114a5565b6000610cb48483611bdc6114a5565b6000610cb48483611be76114a5565b6000610cb48483611bff6114a5565b6000610cb48483611c116114ff565b6000610cb48483611c1d6114a5565b6000610cb48483611c286114a5565b6000610cb48483611c336114a5565b6000610cb48483611c3e6114a5565b6000610cb48483611c496114ff565b6000610cb48483611c556114ff565b6000610cb48483611c616114ff565b6000610cb48483611c6d6114a5565b6000610cb48483611c788661165b565b6000610cb48483611cb38661165b565b6000610cb48483611ce48661165b565b6000610cb48483611cfa611dbc565b6000610cb48483611dcd6114a5565b6000610cb48483611e1a6114a5565b6000610cb48483611e676114a5565b6000610cb48483611ee96114a5565b6000610cb48483611f366114a5565b6000610cb48483611f83611705565b6000614710610ce7858483611fe2565b6000610cb48483611ff086612047565b6000610cb4848361205a866120f4565b6000610cb484836121076114ff565b600060ff8316808203611414576040517f904c1f6d00000000000000000000000000000000000000000000000000000000815260040160405180910390fd5b610ce76114228685846115cf565b86906115ac565b6000610cb484836121666114ff565b60006114496020830184845161217e565b81516020028301610318565b6000611466602083018484516121a6565b81518301610318565b60ff80831660020a7fffffffffffffffffffffffffffffffffffffffffffffffffffffffffffffffff0160089390931c161c1690565b6000610cb46114b48585611510565b85906115ac565b60ff83811660020a7fffffffffffffffffffffffffffffffffffffffffffffffffffffffffffffffff0192831660089490941c1692831b9190921b19919091161790565b6000610cb46114b4858560026115cf565b7fffffffffffffffffffffffffffffffffffffffffffffffffffffffffffffffe001600061153e8383612223565b50919050565b60006020820283019250600182111561158e576115887fffffffffffffffffffffffffffffffffffffffffffffffffffffffffffffffe084016060860151906115f6565b60608501525b6115988484612287565b509092915050565b6000610318838361229c565b602001600061153e8383612287565b600060208202830192506115988484612287565b600081156115985760208202830392506115988484612223565b6000602082028303610cb4565b60008183116116055781610318565b5090919050565b60008160405160200161161f9190614c54565b604080517fffffffffffffffffffffffffffffffffffffffffffffffffffffffffffffffe0818403018152919052805160209091012092915050565b6000610ce76114228686856115cf565b6040517efdd58e00000000000000000000000000000000000000000000000000000000815273ffffffffffffffffffffffffffffffffffffffff8381166004830152602482018390526000919085169062fdd58e906044015b602060405180830381865afa1580156116e1573d6000803e3d6000fd5b505050506040513d601f19601f82011682018060405250810190610cb49190614c8a565b6000610cb46114b4858560036115cf565b6040517f4e1273f400000000000000000000000000000000000000000000000000000000815260609073ffffffffffffffffffffffffffffffffffffffff851690634e1273f49061176d9086908690600401614ca3565b600060405180830381865afa15801561178a573d6000803e3d6000fd5b505050506040513d6000823e601f3d9081017fffffffffffffffffffffffffffffffffffffffffffffffffffffffffffffffe0168201604052610cb49190810190614d06565b6000610ce76117e68686600160028702016115cf565b869084611544565b6040517f70a0823100000000000000000000000000000000000000000000000000000000815273ffffffffffffffffffffffffffffffffffffffff8281166004830152600091908416906370a08231906024015b602060405180830381865afa15801561185f573d6000803e3d6000fd5b505050506040513d601f19601f820116820180604052508101906103189190614c8a565b60008173ffffffffffffffffffffffffffffffffffffffff166318160ddd6040518163ffffffff1660e01b8152600401602060405180830381865afa1580156118d0573d6000803e3d6000fd5b505050506040513d601f19601f820116820180604052508101906102059190614c8a565b6040517f4ee2cd7e00000000000000000000000000000000000000000000000000000000815273ffffffffffffffffffffffffffffffffffffffff83811660048301526024820183905260009190851690634ee2cd7e906044016116c4565b6040517f981b24d00000000000000000000000000000000000000000000000000000000081526004810182905260009073ffffffffffffffffffffffffffffffffffffffff84169063981b24d090602401611842565b60008173ffffffffffffffffffffffffffffffffffffffff16638da5cb5b6040518163ffffffff1660e01b8152600401602060405180830381865afa1580156119f6573d6000803e3d6000fd5b505050506040513d601f19601f82011682018060405250810190611a1a9190614d8c565b73ffffffffffffffffffffffffffffffffffffffff1692915050565b6040517f6352211e0000000000000000000000000000000000000000000000000000000081526004810182905260009073ffffffffffffffffffffffffffffffffffffffff841690636352211e90602401602060405180830381865afa158015611aa4573d6000803e3d6000fd5b505050506040513d601f19601f82011682018060405250810190611ac89190614d8c565b73ffffffffffffffffffffffffffffffffffffffff169392505050565b80611aef57600080fd5b50565b6000610ce78585846115cf565b60006103188284614bda565b60006103188284614a32565b60006103188284614ee2565b60008183106116055781610318565b60006103188284614eee565b60006103188284614f02565b60006103188284614f19565b600061031882600285901c60038616612424565b6000610cb4828460038716612424565b600061031882600285901c600386166124a9565b6060600084116115985781610cb4565b1490565b1090565b1590565b1190565b6000610318838361250b565b60006102058261251e565b60006103188383612596565b6000610205826125b1565b600061020582612619565b6000670de0b6b3a76400008206801515028203610205565b6000670de0b6b3a76400008206610205565b60006103188383612687565b600061020582612707565b60006102058261272a565b60006102058261275b565b6000610205826135e7565b6000610318838361374c565b6000610318838361375b565b600061031883836137b8565b600061020582613818565b6000828201838110611c8a5780610cb4565b7fffffffffffffffffffffffffffffffffffffffffffffffffffffffffffffffff949350505050565b600082600003611cc557506000610205565b82820282848281611cd857611cd86149d4565b0403611c8a5780610cb4565b6000818311611cf4576000610318565b50900390565b6040517fd97b2e4800000000000000000000000000000000000000000000000000000000815273ffffffffffffffffffffffffffffffffffffffff84811660048301528381166024830152604482018390526000919086169063d97b2e4890606401602060405180830381865afa158015611d79573d6000803e3d6000fd5b505050506040513d601f19601f82011682018060405250810190611d9d9190614c8a565b73ffffffffffffffffffffffffffffffffffffffff1695945050505050565b6000610cb46114b4858560046115cf565b60008173ffffffffffffffffffffffffffffffffffffffff1663ec14b06e6040518163ffffffff1660e01b8152600401602060405180830381865afa1580156118d0573d6000803e3d6000fd5b60008173ffffffffffffffffffffffffffffffffffffffff1663cd3293de6040518163ffffffff1660e01b8152600401602060405180830381865afa1580156119f6573d6000803e3d6000fd5b60008173ffffffffffffffffffffffffffffffffffffffff1663f9020e336040518163ffffffff1660e01b8152600401602060405180830381865afa158015611eb4573d6000803e3d6000fd5b505050506040513d601f19601f82011682018060405250810190611ed89190614f2c565b600381111561020557610205614c25565b60008173ffffffffffffffffffffffffffffffffffffffff1663fc0c546a6040518163ffffffff1660e01b8152600401602060405180830381865afa1580156119f6573d6000803e3d6000fd5b60008173ffffffffffffffffffffffffffffffffffffffff166347e4bbb96040518163ffffffff1660e01b8152600401602060405180830381865afa1580156118d0573d6000803e3d6000fd5b6040517fdb8554fc00000000000000000000000000000000000000000000000000000000815273ffffffffffffffffffffffffffffffffffffffff8381166004830152602482018390526000919085169063db8554fc906044016116c4565b6000610cb4848460026115cf565b6040517f88d6860400000000000000000000000000000000000000000000000000000000815260009073ffffffffffffffffffffffffffffffffffffffff8516906388d68604906116c49086908690600401614f4d565b6000610ce76114228686600286016115cf565b6040517fcaa0eb3b00000000000000000000000000000000000000000000000000000000815260009073ffffffffffffffffffffffffffffffffffffffff86169063caa0eb3b906120b390879087908790600401614f7c565b602060405180830381865afa1580156120d0573d6000803e3d6000fd5b505050506040513d601f19601f82011682018060405250810190610ce79190614c8a565b6000610ce76114228686600386016115cf565b60008060015b6008811161215e5760006121218683613887565b9050600061212f8684613887565b9050600061213d8383611ce4565b905061214d856001860383613937565b9450506001909201915061210d9050565b509392505050565b6000610cb48385600f16600487901c600f16856139c1565b8060200283015b808410156121a0578351835260209384019390920191612185565b50505050565b5b602081106121e45782518252602092830192909101907fffffffffffffffffffffffffffffffffffffffffffffffffffffffffffffffe0016121a7565b801561221e577fffffffffffffffffffffffffffffffffffffffffffffffffffffffffffffffff600882021c808351168119855116178352505b505050565b816060015181116122835760608201516040830151602091030460408301516020908303046040517f625e32e400000000000000000000000000000000000000000000000000000000815260048101929092526024820152604401610252565b5050565b81608001518111156122835760809190910152565b60008060008473ffffffffffffffffffffffffffffffffffffffff1663feaf968c6040518163ffffffff1660e01b815260040160a060405180830381865afa1580156122ec573d6000803e3d6000fd5b505050506040513d601f19601f820116820180604052508101906123109190614fd0565b5093505092505060008213612354576040517f3351e26f00000000000000000000000000000000000000000000000000000000815260048101839052602401610252565b8361235f8242614f19565b11156123a1576040517f2730eb480000000000000000000000000000000000000000000000000000000081526004810182905260248101859052604401610252565b610ce78573ffffffffffffffffffffffffffffffffffffffff1663313ce5676040518163ffffffff1660e01b8152600401602060405180830381865afa1580156123ef573d6000803e3d6000fd5b505050506040513d601f19601f820116820180604052508101906124139190615020565b60ff16600161242185613a67565b91905b60008260121115612459576012839003600283161561244f576124478582613ad7565b915050610318565b6124478582613b5d565b60128311156124a2577fffffffffffffffffffffffffffffffffffffffffffffffffffffffffffffffee83016001831615612498576124478582613b95565b6124478582613be3565b5082610318565b600082601211156124cc5760128390036001831615612498576124478582613b95565b60128311156124a2577fffffffffffffffffffffffffffffffffffffffffffffffffffffffffffffffee8301600283161561244f576124478582613ad7565b6000828280821681831860011c01610ce7565b6000817ffffffffffffffffffffffffffffffffffffffffffffffffff7e52fe5afe4000081111561257e576040517f6149f6b900000000000000000000000000000000000000000000000000000000815260048101849052602401610252565b5050670de0b6b3a76400008082068015159103020190565b60006103186125ae84670de0b6b3a764000085613c06565b90565b600081680736ea4425c11ac63181106125f9576040517f1af63aca00000000000000000000000000000000000000000000000000000000815260048101849052602401610252565b6714057b7ef767814f8102610cb4612619670de0b6b3a7640000835b0490565b600081680a688906bd8b0000008110612661576040517fb3b6ba1f00000000000000000000000000000000000000000000000000000000815260048101849052602401610252565b6000612679670de0b6b3a7640000604084901b614a32565b9050610cb46125ae82613d11565b60008282811580612696575080155b156126a657600092505050610205565b818102818382816126b9576126b96149d4565b04146126fb576040517fae7f3b370000000000000000000000000000000000000000000000000000000081526004810187905260248101869052604401610252565b610c2f6125ae82614486565b6000610205826ec097ce7bc90715b34b9f100000000081612615576126156149d4565b60006102056714057b7ef767814f670de0b6b3a764000061274d6125ae866135e7565b0281612615576126156149d4565b600081670de0b6b3a76400008110156127a3576040517f36d32ef000000000000000000000000000000000000000000000000000000000815260048101849052602401610252565b8260018114612ef457600a8114612f1c5760648114612f44576103e88114612f6c576127108114612f9457620186a08114612fbc57620f42408114612fe45762989680811461300c576305f5e100811461303457633b9aca00811461305c576402540be40081146130845764174876e80081146130ac5764e8d4a5100081146130d4576509184e72a00081146130fc57655af3107a400081146131245766038d7ea4c68000811461314c57662386f26fc1000081146131745767016345785d8a0000811461319c57670de0b6b3a764000081146131c457678ac7230489e8000081146131cd5768056bc75e2d6310000081146131dd57683635c9adc5dea0000081146131ed5769021e19e0c9bab240000081146131fd5769152d02c7e14af6800000811461320d5769d3c21bcecceda1000000811461321d576a084595161401484a000000811461322d576a52b7d2dcc80cd2e4000000811461323d576b033b2e3c9fd0803ce8000000811461324d576b204fce5e3e25026110000000811461325d576c01431e0fae6d7217caa0000000811461326d576c0c9f2c9cd04674edea40000000811461327d576c7e37be2022c0914b2680000000811461328d576d04ee2d6d415b85acef8100000000811461329d576d314dc6448d9338c15b0a0000000081146132ad576e01ed09bead87c0378d8e640000000081146132bd576e13426172c74d822b878fe80000000081146132cd576ec097ce7bc90715b34b9f100000000081146132dd576f0785ee10d5da46d900f436a00000000081146132ed576f4b3b4ca85a86c47a098a22400000000081146132fe577002f050fe938943acc45f65568000000000811461330f57701d6329f1c35ca4bfabb9f5610000000000811461332057710125dfa371a19e6f7cb54395ca0000000000811461333157710b7abc627050305adf14a3d9e400000000008114613342577172cb5bd86321e38cb6ce6682e8000000000081146133535772047bf19673df52e37f2410011d100000000000811461336457722cd76fe086b93ce2f768a00b22a000000000008114613375577301c06a5ec5433c60ddaa16406f5a40000000000081146133865773118427b3b4a05bc8a8a4de84598680000000000081146133975773af298d050e4395d69670b12b7f4100000000000081146133a8577406d79f82328ea3da61e066ebb2f88a00000000000081146133b95774446c3b15f9926687d2c40534fdb56400000000000081146133ca577502ac3a4edbbfb8014e3ba83411e915e800000000000081146133db57751aba4714957d300d0e549208b31adb1000000000000081146133ec5776010b46c6cdd6e3e0828f4db456ff0c8ea000000000000081146133fd57760a70c3c40a64e6c51999090b65f67d9240000000000000811461340e57766867a5a867f103b2fffa5a71fba0e7b680000000000000811461341f577704140c78940f6a24fdffc78873d4490d21000000000000008114613430577728c87cb5c89a2571ebfdcb54864ada834a00000000000000811461344157780197d4df19d605767337e9f14d3eec8920e400000000000000811461345257780fee50b7025c36a0802f236d04753d5b48e800000000000000811461346357789f4f2726179a224501d762422c946590d9100000000000000081146134745779063917877cec0556b21269d695bdcbf7a87aa000000000000000811461348557793e3aeb4ae1383562f4b82261d969f7ac94ca40000000000000008114613496577a026e4d30eccc3215dd8f3157d27e23acbdcfe6800000000000000081146134a7577a184f03e93ff9f4daa797ed6e38ed64bf6a1f01000000000000000081146134b8577af316271c7fc3908a8bef464e3945ef7a25360a000000000000000081146134c9577b097edd871cfda3a5697758bf0e3cbb5ac5741c64000000000000000081146134da577b5ef4a74721e864761ea977768e5f518bb6891be8000000000000000081146134eb577c03b58e88c75313ec9d329eaaa18fb92f75215b1710000000000000000081146134fc577c25179157c93ec73e23fa32aa4f9d3bda934d8ee6a00000000000000000811461350d577d0172ebad6ddc73c86d67c5faa71c245689c1079502400000000000000000811461351e577d0e7d34c64a9c85d4460dbbca87196b61618a4bd216800000000000000000811461352f577d90e40fbeea1d3a4abc8955e946fe31cdcf66f634e10000000000000000008114613540577e05a8e89d75252446eb5d5d5b1cc5edf20a1a059e10ca0000000000000000008114613551577e3899162693736ac531a5a58f1fbb4b746504382ca7e40000000000000000008114613562577f0235fadd81c2822bb3f07877973d50f28bf22a31be8ee80000000000000000008114613573577f161bcca7119915b50764b4abe86529797775a5f17195100000000000000000008114613584577fdd15fe86affad91249ef0eb713f39ebeaa987b6e6fd2a00000000000000000008114613595577fffffffffffffffffffffffffffffffffffffffffffffffffffffffffffffffff92506135a2565b7fffffffffffffffffffffffffffffffffffffffffffffffff0633275e3af8000092506135a2565b7fffffffffffffffffffffffffffffffffffffffffffffffff1413de11e25c000092506135a2565b7fffffffffffffffffffffffffffffffffffffffffffffffff21f494c589c0000092506135a2565b7fffffffffffffffffffffffffffffffffffffffffffffffff2fd54b793124000092506135a2565b7fffffffffffffffffffffffffffffffffffffffffffffffff3db6022cd888000092506135a2565b7fffffffffffffffffffffffffffffffffffffffffffffffff4b96b8e07fec000092506135a2565b7fffffffffffffffffffffffffffffffffffffffffffffffff59776f942750000092506135a2565b7fffffffffffffffffffffffffffffffffffffffffffffffff67582647ceb4000092506135a2565b7fffffffffffffffffffffffffffffffffffffffffffffffff7538dcfb7618000092506135a2565b7fffffffffffffffffffffffffffffffffffffffffffffffff831993af1d7c000092506135a2565b7fffffffffffffffffffffffffffffffffffffffffffffffff90fa4a62c4e0000092506135a2565b7fffffffffffffffffffffffffffffffffffffffffffffffff9edb01166c44000092506135a2565b7fffffffffffffffffffffffffffffffffffffffffffffffffacbbb7ca13a8000092506135a2565b7fffffffffffffffffffffffffffffffffffffffffffffffffba9c6e7dbb0c000092506135a2565b7fffffffffffffffffffffffffffffffffffffffffffffffffc87d25316270000092506135a2565b7fffffffffffffffffffffffffffffffffffffffffffffffffd65ddbe509d4000092506135a2565b7fffffffffffffffffffffffffffffffffffffffffffffffffe43e9298b138000092506135a2565b7ffffffffffffffffffffffffffffffffffffffffffffffffff21f494c589c000092506135a2565b600092506135a2565b670de0b6b3a764000092506135a2565b671bc16d674ec8000092506135a2565b6729a2241af62c000092506135a2565b673782dace9d90000092506135a2565b674563918244f4000092506135a2565b6753444835ec58000092506135a2565b676124fee993bc000092506135a2565b676f05b59d3b20000092506135a2565b677ce66c50e284000092506135a2565b678ac7230489e8000092506135a2565b6798a7d9b8314c000092506135a2565b67a688906bd8b0000092506135a2565b67b469471f8014000092506135a2565b67c249fdd32778000092506135a2565b67d02ab486cedc000092506135a2565b67de0b6b3a7640000092506135a2565b67ebec21ee1da4000092506135a2565b67f9ccd8a1c508000092506135a2565b680107ad8f556c6c000092506135a2565b6801158e460913d0000092506135a2565b6801236efcbcbb34000092506135a2565b6801314fb3706298000092506135a2565b68013f306a2409fc000092506135a2565b68014d1120d7b160000092506135a2565b68015af1d78b58c4000092506135a2565b680168d28e3f0028000092506135a2565b680176b344f2a78c000092506135a2565b68018493fba64ef0000092506135a2565b68019274b259f654000092506135a2565b6801a055690d9db8000092506135a2565b6801ae361fc1451c000092506135a2565b6801bc16d674ec80000092506135a2565b6801c9f78d2893e4000092506135a2565b6801d7d843dc3b48000092506135a2565b6801e5b8fa8fe2ac000092506135a2565b6801f399b1438a10000092506135a2565b6802017a67f73174000092506135a2565b68020f5b1eaad8d8000092506135a2565b68021d3bd55e803c000092506135a2565b68022b1c8c1227a0000092506135a2565b680238fd42c5cf04000092506135a2565b680246ddf9797668000092506135a2565b680254beb02d1dcc000092506135a2565b6802629f66e0c530000092506135a2565b680270801d946c94000092506135a2565b68027e60d44813f8000092506135a2565b68028c418afbbb5c000092506135a2565b68029a2241af62c0000092506135a2565b6802a802f8630a24000092506135a2565b6802b5e3af16b188000092506135a2565b6802c3c465ca58ec000092506135a2565b6802d1a51c7e0050000092506135a2565b6802df85d331a7b4000092506135a2565b6802ed6689e54f18000092506135a2565b6802fb474098f67c000092506135a2565b68030927f74c9de0000092506135a2565b68031708ae004544000092506135a2565b680324e964b3eca8000092506135a2565b680332ca1b67940c000092505b507fffffffffffffffffffffffffffffffffffffffffffffffffffffffffffffffff820361153e57610318672e19dc008126bf2b670de0b6b3a764000061274d6125ae875b600081670de0b6b3a764000081101561362f576040517f36d32ef000000000000000000000000000000000000000000000000000000000815260048101849052602401610252565b60006136bb670de0b6b3a7640000830460016fffffffffffffffffffffffffffffffff821160071b91821c67ffffffffffffffff811160061b90811c63ffffffff811160051b90811c61ffff811160041b90811c60ff8111600390811b91821c600f811160021b90811c918211871b91821c969096119490961792909217171791909117919091171790565b9050670de0b6b3a7640000810282821c7ffffffffffffffffffffffffffffffffffffffffffffffffff21f494c589c000081016136fb5750949350505050565b671bc16d674ec800006706f05b59d3b200005b801561373e57670de0b6b3a7640000838002049250818310613736579283019260019290921c915b60011c61370e565b50825b979650505050505050565b60006103186125ae848461460b565b6000828281830361378457801561377357600061377d565b670de0b6b3a76400005b92506137b0565b670de0b6b3a7640000810361379b578492506137b0565b610ce76126196137aa876135e7565b8661374c565b505092915050565b60008281600184166137d257670de0b6b3a76400006137d4565b815b9050600184901c93505b8315613812576137ee828361460b565b9150600184161561380657613803818361460b565b90505b600184901c93506137de565b80610ce7565b6000817812725dd1d243aba0e75fe645cc4873f9e65afe688c928e1f21811115613871576040517fedc236ad00000000000000000000000000000000000000000000000000000000815260048101849052602401610252565b6103186125ae670de0b6b3a76400008302614486565b60008160088111156138f5576040517f08c379a000000000000000000000000000000000000000000000000000000000815260206004820152600860248201527f4d41585f544945520000000000000000000000000000000000000000000000006044820152606401610252565b826000036139065760009150610876565b50507fffffffffffffffffffffffffffffffffffffffffffffffffffffffffffffffff016020021c63ffffffff1690565b60008260088111156139a5576040517f08c379a000000000000000000000000000000000000000000000000000000000815260206004820152600860248201527f4d41585f544945520000000000000000000000000000000000000000000000006044820152606401610252565b505060209190910290811b63ffffffff90911b19919091161790565b6000826008811115613a2f576040517f08c379a000000000000000000000000000000000000000000000000000000000815260206004820152600860248201527f4d41585f544945520000000000000000000000000000000000000000000000006044820152606401610252565b6000855b85811015613a5b5763ffffffff6020820290811b199890981685891b17979150600101613a33565b50959695505050505050565b600080821215613ad3576040517f08c379a000000000000000000000000000000000000000000000000000000000815260206004820181905260248201527f53616665436173743a2076616c7565206d75737420626520706f7369746976656044820152606401610252565b5090565b6000604e8210613b17578215613b0d577fffffffffffffffffffffffffffffffffffffffffffffffffffffffffffffffff613b10565b60005b9050610205565b50600a81900a8281029083818381613b3157613b316149d4565b0414610876577fffffffffffffffffffffffffffffffffffffffffffffffffffffffffffffffff610cb4565b600a81900a613b6c8184614f02565b9050604e8210610205578215613b8c57613b8782600a614ee2565b610318565b50600092915050565b6000604e8210613bb9578215613bac576001613baf565b60005b60ff169050610205565b600a82900a808481613bcd57613bcd6149d4565b0491508082028414610876575060010192915050565b6000604e821015613b8c5781600a0a8381613c0057613c006149d4565b04610318565b600080807fffffffffffffffffffffffffffffffffffffffffffffffffffffffffffffffff85870985870292508281108382030391505080600003613c5e57838281613c5457613c546149d4565b0492505050610318565b838110613ca8576040517f63a05778000000000000000000000000000000000000000000000000000000008152600481018790526024810186905260448101859052606401610252565b60008486880960026001871981018816978890046003810283188082028403028082028403028082028403028082028403028082028403029081029092039091026000889003889004909101858311909403939093029303949094049190911702949350505050565b7780000000000000000000000000000000000000000000000067ff00000000000000821615613e3257678000000000000000821615613d595768016a09e667f3bcc9090260401c5b674000000000000000821615613d78576801306fe0a31b7152df0260401c5b672000000000000000821615613d97576801172b83c7d517adce0260401c5b671000000000000000821615613db65768010b5586cf9890f62a0260401c5b670800000000000000821615613dd5576801059b0d31585743ae0260401c5b670400000000000000821615613df457680102c9a3e778060ee70260401c5b670200000000000000821615613e135768010163da9fb33356d80260401c5b670100000000000000821615613e3257680100b1afa5abcbed610260401c5b66ff000000000000821615613f31576680000000000000821615613e5f5768010058c86da1c09ea20260401c5b6640000000000000821615613e7d576801002c605e2e8cec500260401c5b6620000000000000821615613e9b57680100162f3904051fa10260401c5b6610000000000000821615613eb9576801000b175effdc76ba0260401c5b6608000000000000821615613ed757680100058ba01fb9f96d0260401c5b6604000000000000821615613ef55768010002c5cc37da94920260401c5b6602000000000000821615613f13576801000162e525ee05470260401c5b6601000000000000821615613f315768010000b17255775c040260401c5b65ff00000000008216156140275765800000000000821615613f5c576801000058b91b5bc9ae0260401c5b65400000000000821615613f7957680100002c5c89d5ec6d0260401c5b65200000000000821615613f965768010000162e43f4f8310260401c5b65100000000000821615613fb357680100000b1721bcfc9a0260401c5b65080000000000821615613fd05768010000058b90cf1e6e0260401c5b65040000000000821615613fed576801000002c5c863b73f0260401c5b6502000000000082161561400a57680100000162e430e5a20260401c5b65010000000000821615614027576801000000b1721835510260401c5b64ff000000008216156141145764800000000082161561405057680100000058b90c0b490260401c5b64400000000082161561406c5768010000002c5c8601cc0260401c5b642000000000821615614088576801000000162e42fff00260401c5b6410000000008216156140a45768010000000b17217fbb0260401c5b6408000000008216156140c0576801000000058b90bfce0260401c5b6404000000008216156140dc57680100000002c5c85fe30260401c5b6402000000008216156140f85768010000000162e42ff10260401c5b64010000000082161561411457680100000000b17217f80260401c5b64ff000000008216156141f957638000000082161561413c5768010000000058b90bfc0260401c5b6340000000821615614157576801000000002c5c85fe0260401c5b632000000082161561417257680100000000162e42ff0260401c5b631000000082161561418d576801000000000b17217f0260401c5b63080000008216156141a857680100000000058b90c00260401c5b63040000008216156141c35768010000000002c5c8600260401c5b63020000008216156141de576801000000000162e4300260401c5b63010000008216156141f95768010000000000b172180260401c5b62ff00008216156142d4576280000082161561421e576801000000000058b90c0260401c5b6240000082161561423857680100000000002c5c860260401c5b622000008216156142525768010000000000162e430260401c5b6210000082161561426c57680100000000000b17210260401c5b620800008216156142865768010000000000058b910260401c5b620400008216156142a0576801000000000002c5c80260401c5b620200008216156142ba57680100000000000162e40260401c5b620100008216156142d4576801000000000000b1720260401c5b61ff008216156143a6576180008216156142f757680100000000000058b90260401c5b6140008216156143105768010000000000002c5d0260401c5b612000821615614329576801000000000000162e0260401c5b6110008216156143425768010000000000000b170260401c5b61080082161561435b576801000000000000058c0260401c5b61040082161561437457680100000000000002c60260401c5b61020082161561438d57680100000000000001630260401c5b6101008216156143a657680100000000000000b10260401c5b60ff82161561446f5760808216156143c757680100000000000000590260401c5b60408216156143df576801000000000000002c0260401c5b60208216156143f757680100000000000000160260401c5b601082161561440f576801000000000000000b0260401c5b600882161561442757680100000000000000060260401c5b600482161561443f57680100000000000000030260401c5b600282161561445757680100000000000000010260401c5b600182161561446f57680100000000000000010260401c5b670de0b6b3a76400000260409190911c60bf031c90565b60008160000361449857506000919050565b5060018170010000000000000000000000000000000081106144bf5760409190911b9060801c5b6801000000000000000081106144da5760209190911b9060401c5b64010000000081106144f15760109190911b9060201c5b6201000081106145065760089190911b9060101c5b610100811061451a5760049190911b9060081c5b6010811061452d5760029190911b9060041c5b6004811061453d57600182901b91505b600182848161454e5761454e6149d4565b048301901c91506001828481614566576145666149d4565b048301901c9150600182848161457e5761457e6149d4565b048301901c91506001828481614596576145966149d4565b048301901c915060018284816145ae576145ae6149d4565b048301901c915060018284816145c6576145c66149d4565b048301901c915060018284816145de576145de6149d4565b048301901c915060008284816145f6576145f66149d4565b049050808310614604578092505b5050919050565b600080807fffffffffffffffffffffffffffffffffffffffffffffffffffffffffffffffff848609848602925082811083820303915050670de0b6b3a7640000811061468d576040517f5173648d0000000000000000000000000000000000000000000000000000000081526004810186905260248101859052604401610252565b6000670de0b6b3a76400008587099050816000036146b9575050670de0b6b3a764000090049050610205565b6204000081840304921090037d40000000000000000000000000000000000000000000000000000000000002177faccb18165bd6fe31ae1cf318dc5b51eee0e1ba569b88cd74c1773b91fac1066902905092915050565b614718615043565b565b60006020828403121561472c57600080fd5b81357fffffffff000000000000000000000000000000000000000000000000000000008116811461031857600080fd5b7f4e487b7100000000000000000000000000000000000000000000000000000000600052604160045260246000fd5b604051601f82017fffffffffffffffffffffffffffffffffffffffffffffffffffffffffffffffe016810167ffffffffffffffff811182821017156147d2576147d261475c565b604052919050565b600067ffffffffffffffff8211156147f4576147f461475c565b5060051b60200190565b600082601f83011261480f57600080fd5b8135602061482461481f836147da565b61478b565b82815260059290921b8401810191818101908684111561484357600080fd5b8286015b8481101561485e5780358352918301918301614847565b509695505050505050565b60008060006060848603121561487e57600080fd5b833567ffffffffffffffff8082111561489657600080fd5b818601915086601f8301126148aa57600080fd5b813560206148ba61481f836147da565b82815260059290921b8401810191818101908a8411156148d957600080fd5b8286015b84811015614984578035868111156148f55760008081fd5b8701603f81018d136149075760008081fd5b8481013560408882111561491d5761491d61475c565b61494d877fffffffffffffffffffffffffffffffffffffffffffffffffffffffffffffffe0601f8501160161478b565b8281528f828486010111156149625760008081fd5b82828501898301376000928101880192909252508452509183019183016148dd565b509750508701359250508082111561499b57600080fd5b6149a7878388016147fe565b935060408601359150808211156149bd57600080fd5b506149ca868287016147fe565b9150509250925092565b7f4e487b7100000000000000000000000000000000000000000000000000000000600052601260045260246000fd5b7f4e487b7100000000000000000000000000000000000000000000000000000000600052601160045260246000fd5b600082614a4157614a416149d4565b500490565b7f4e487b7100000000000000000000000000000000000000000000000000000000600052603260045260246000fd5b600061ffff808316818103614a8c57614a8c614a03565b6001019392505050565b600081518084526020808501945080840160005b83811015614ac657815187529582019590820190600101614aaa565b509495945050505050565b60006080820173ffffffffffffffffffffffffffffffffffffffff87168352602060808185015281875180845260a08601915060a08160051b87010193508289016000805b83811015614bae577fffffffffffffffffffffffffffffffffffffffffffffffffffffffffffffff6089880301855282518051808952835b81811015614b69578281018901518a82018a01528801614b4e565b508881018801849052601f017fffffffffffffffffffffffffffffffffffffffffffffffffffffffffffffffe016909701860196509385019391850191600101614b16565b5050505050508281036040840152614bc68186614a96565b905082810360608401526137418185614a96565b8082018082111561020557610205614a03565b60007fffffffffffffffffffffffffffffffffffffffffffffffffffffffffffffffff8203614c1e57614c1e614a03565b5060010190565b7f4e487b7100000000000000000000000000000000000000000000000000000000600052602160045260246000fd5b815160009082906020808601845b83811015614c7e57815185529382019390820190600101614c62565b50929695505050505050565b600060208284031215614c9c57600080fd5b5051919050565b604080825283519082018190526000906020906060840190828701845b82811015614cf257815173ffffffffffffffffffffffffffffffffffffffff1684529284019290840190600101614cc0565b50505083810382850152610c2f8186614a96565b60006020808385031215614d1957600080fd5b825167ffffffffffffffff811115614d3057600080fd5b8301601f81018513614d4157600080fd5b8051614d4f61481f826147da565b81815260059190911b82018301908381019087831115614d6e57600080fd5b928401925b8284101561374157835182529284019290840190614d73565b600060208284031215614d9e57600080fd5b815173ffffffffffffffffffffffffffffffffffffffff8116811461031857600080fd5b600181815b80851115614e1b57817fffffffffffffffffffffffffffffffffffffffffffffffffffffffffffffffff04821115614e0157614e01614a03565b80851615614e0e57918102915b93841c9390800290614dc7565b509250929050565b600082614e3257506001610205565b81614e3f57506000610205565b8160018114614e555760028114614e5f57614e7b565b6001915050610205565b60ff841115614e7057614e70614a03565b50506001821b610205565b5060208310610133831016604e8410600b8410161715614e9e575081810a610205565b614ea88383614dc2565b807fffffffffffffffffffffffffffffffffffffffffffffffffffffffffffffffff04821115614eda57614eda614a03565b029392505050565b60006103188383614e23565b600082614efd57614efd6149d4565b500690565b808202811582820484141761020557610205614a03565b8181038181111561020557610205614a03565b600060208284031215614f3e57600080fd5b81516004811061031857600080fd5b73ffffffffffffffffffffffffffffffffffffffff83168152604060208201526000610cb46040830184614a96565b73ffffffffffffffffffffffffffffffffffffffff84168152826020820152606060408201526000610ce76060830184614a96565b805169ffffffffffffffffffff81168114614fcb57600080fd5b919050565b600080600080600060a08688031215614fe857600080fd5b614ff186614fb1565b945060208601519350604086015192506060860151915061501460808701614fb1565b90509295509295909350565b60006020828403121561503257600080fd5b815160ff8116811461031857600080fd5b7f4e487b7100000000000000000000000000000000000000000000000000000000600052605160045260246000fdfe09d409eb09fa0a7d0a8b0add0b4d0bcb0c950ceb0d170db00f440f840fa20fb10fbf0fce0fdc0fea0ff810060fce101410221031103f104d105c106b107a1089109810a710b610c510d410e310f2113b114d115b118d119b11a911b711c511d311e111ef11fd120b12191227123512431251125f126d127b1289129712a612b512c412d212e012ee12fc130a13181326145414dc14eb14fa1508157aa264697066735822122084db9a4e27520f284f8477032428eea646f4b9157c917863423cf73230448ab464736f6c6343000812003309d409eb09fa0a7d0a8b0add0b4d0bcb0c950ceb0d170db00f440f840fa20fb10fbf0fce0fdc0fea0ff810060fce101410221031103f104d105c106b107a1089109810a710b610c510d410e310f2113b114d115b118d119b11a911b711c511d311e111ef11fd120b12191227123512431251125f126d127b1289129712a612b512c412d212e012ee12fc130a13181326145414dc14eb14fa1508157a",
    "linkReferences": {},
    "deployedLinkReferences": {}
}